:400000000010002011000000B5030000B503000008B500F081FA00F0CFF90000F7B572B680220021D200554800F0EDFF802200215348D20000F0E7FF0023191C514C1859E1
:400040001034C2B20192071CFF2297434A00A4180022019ED5B2AE4209D05500665D6519B446BC446D78664635700132F1E7C0B204330918102BE1D1434BC02292041A60F8
:40008000424B99221A60424A00231360414A80211160414AC9031160404A40211160404AC021490311603F4A312113603E4B02221A603E4B802019603D4B3E491A60992317
:4000C0001B040B603C49000608603C493C200B603B4B8021890519603A493B4B19603B4B19780A431A703A4A117881431420014311701A7816210A431A70364A8023116893
:40010000DB020B431360344B141C1878334BC0B21978334BC9B21A78172A05D9314A58789978033B9342F6D12F4B192218602F4B052019602E4B1A6000F05EFD2D4B052061
:400140001A782D4BD2B21A6000F09EFE22682B4B134023602A4A2B4B1A602B4B10221A602A4B20221A602A4B802212061A60294A294B1A60294A2A4B1A60F7BD00300F40BF
:4001800000400F402410000004000140100001400C000140000004400800044000010440080104400803044000040440080404401804044000500F4004500F4010500F403F
:4001C00018500F40100001002001054000700F4001700F4000010B40CCF1FF0FCDF1FF0FC9F1FF0FBDF1FF0F1CFF0B4020FF0B402CFF0B40E5F1FF0F28FF0B40FFFFFBFF57
:400200000600008004010B40080202402002024008010B401000008000000240AF0400804000024010B5064C2378002B07D1054B002B02D0044800E000BF0123237010BDEC
:40024000F0000020000000002010000008B5084B002B03D00748084900E000BF07480368002B03D0064B002B00D0984708BDC0460000000020100000F4000020D00000200F
:400280000000000010B562B600F0ACFC00280ED16524012000F0E2FD00F0A4FC002806D1013CE4B2002CF4D1034B40221A6000F08BFC00F0DBFAFEE7C000002008B500F01E
:4002C00015FB00F04DFB00F0B5FB08BD70B5054B0D1C161C0024C9B21C8000F09FFB3580201C70BD0C010020F0B50A275F4387B003900591151C00262D4CBE4219DA00F0E6
:400300001DFB80B220802388002B0CD00220268800F0A4FD00F012FB80B220802388B6B2B342F3D807E00120013600F097FDB6B2E2E7052600E0002600272F802388002B4D
:4003400033D023889BB2019301992B885A18059992B22A808A4221D2019ABB189BB2029302998F4209D07B1C9BB20493039BDF1900F0CAFA3870049FF2E772B62388019AF8
:400380009B1A9BB2238062B6039A5318013B1B78172B08D0052000F061FD04E02B8000F0DFFA052601E0029FC8E7301C07B0F0BD0C010020FEE7000070B51048104B013895
:4003C000421C15D01E685C689D680022A118AA4203D0B158A1500432F8E7DA680D1C4C1B944202D0002410C1F9E710330138E7E700F0DAFDFFF746FFFEE7C046010000003B
:400400007410000008B500239A00032B02D80D49895800E00C490D4801338150302BF3D1FFF7FCFD0A4B00221A600A4B1A68002A00D11A608023DB051A6801210A431A60B7
:4004400008BDC04600000000B503000000000020C8000020C0000020004770B5051C0E1C141C002802D0002000F0EAFC0020002C05D0013CAA19125D8318D8B2F7E770BD7A
:40048000013808B509282AD8C901494200F078FD0507090B0D0F1614181B154B08E0154B12E0154B0DE0154B0EE0154B00E0154BC9180878C0B21AE0134B02E0134B00E0A0
:4004C000134BC9180FE0134BC9180B7848788A780002120410431843CB781B0606E0002000F0AEFC00210B7848780002184308BDC07F0000C17F0000C57F0000C97F0000EF
:40050000D07F0000D17F0000D67F0000D27F0000D47F0000D87F00000C4B10B51A6810231A400B4B00D11A601A68802A0DD100240220211C1C60FFF7A3FFA04205D0211C6B
:400540000220FFF79DFFFFF787FF10BD00030B40C0000020F8B5051C291C0320FFF790FF291C041C0420FFF78BFF671CFF013F18291C0320FFF784FF00240130C001261C79
:40058000B84209D203785A1ED2B2FD2A00D801261C19E4B20130F3E70120291CFFF770FF6442E4B20623844203D17242564176423340181CF8BD0000F0B5A44CA544FFF756
:4005C0007DFE62B600260096002506AC03AE9621201C4900321CFF23FFF786FE0028F4D13188062900D88AE022780423012A54D1E778A2783F021743E2195679B44616796F
:400600000196FE1D8E427FD89279172A45D1FB189BB2002B08D09CA98D4ECA1892191278013B801880B2F3E7019B614640420A0280B21A43082382422FD167E0342B00D040
:400640009DE0009901295AD1032F58D151A80021802200F0D8FC802551A948192639ED19FA1EFF39ADB200F0C5FC832D49D1A079637900021843774B36021B6880191A68BB
:4006800080B2D3099BB2560601D001339BB298427BD20127009700250A2300210120207068466A46437681766B4600200E32D8760B1D11809BB29CAFFE18654F013BF61954
:4006C00036789BB2801980B2002BF4D19CAE624F7318DE194042614F80B23070DE19000A30705F4807311B181720187089B2201C9623FFF7EBFD68E7009E012E1BD0042315
:40070000CBE70126009600250323C6E763782679181C31380A2801D90523BEE700F03AFCECFF1400FCFF8EFF3F00FCFF430054008EFF63008B00002FE1D1381CFFF70AFF35
:4007400043424341237173E000980128D7D1012FD5D1002ED3D13F4B1B681B68DA0BD2B2DB09DBB2002A01D080235B0023711B0A6371FF23A3710023E37104218EE7009BA6
:40078000012BBCD1022FBAD966E751A900F048FA002800D07DE701260096051C12E0009F012FACD110E7009E012EA8D19623EE195B009E42A8D851A948193A1C07A900F0C2
:4007C00019FCB5B2002368E7002F98D104AB254A191C41CA41C107AA41CB41C2012600963B1C08215AE70098012888D1032F86D1A37962791B021A43310251180192C901C8
:4008000000208022FFF729FE071C002E0ED10199FF290BD1311C0520FFF732FE311C3F1A0620FFF72DFEFFB23F1AFFB27F4227710023012132E70020FFF78CFE002802D179
:40084000094B80221A6000F0FDFA58E78CFDFFFFA7FDFFFFD4000020ACFDFFFFADFDFFFFAEFDFFFF48100000C000002038B50020FFF770FE0025A84200D00625124C00209C
:400880002368C0211A68C03AFFF7E7FD62681378181AC0B2984203D123681B68002B02D1002000F0CDFA094B19681A1C402901D0002D03D000231360FFF77EFE80221A6083
:4008C00000F0C0FA38BDC046D4000020C000002008B5054B8022196812060A431A600A2000F09AFA08BDC0460000064010B5054C2378002B03D100F0BFF801232370FFF7AD
:40090000E7FF10BD10010020094B0A4A1968136899420BD011684B1C4039481E814149420B400549C85C1360C0B200E000207047B0010020280100206C010020064B074ACB
:400940001B6811688B4202D31068181A02E012684133981A7047C046B0010020280100200C4A0D4B002130B5106811601D68802464022C431C601D68084C2C401C60084BAB
:400980001C68084B1C60084B19700849084B1960106030BDC80F064004030640FFFFFEFF28010020B0010020AD010020ED0F0000C00F0640124910B50A68531C3F3A541E44
:4009C000A241524213400F4A1468A342FBD00C681268944208D10C4A14680F222240082A02D00A4B18600AE0094C02222260094CC0B2E0540B60084B19680A431A6010BD22
:400A000024010020200100200802064040020640800F06402C010020880F064038B5041C4518AC4204D02078FFF7C4FF0134F8E738BD00000B4A0023116810B513600A4B55
:400A400080201C684002204318601C68074820401860074B1868074B186002239943116010BDC046880F064004020640FFFFFEFF20010020240100201D4A1E4B10B51A60F0
:400A80001D4B00241C601D4B01221A601C491D4B07200B601C4908601C490A200C601C490A601C4A13601C4B1C6000F0BFF90A20032100F091F919490A2000F081F9184BAE
:400AC00004221C60174B1C60174B1C60174B1C60174B1A60174B1C60174B1C60174B1C60174B1C70174B1C60174B1C6010BDC0460B00000200000640400006404800064060
:400B0000000306400700008004030640100306404400064000020640040206409D0E0000880E0640C80E0640480F0640080F0640C80F0640880F0640B00100202801002070
:400B4000AD01002024010020200100200E4B8422D2041A601968802252020A431A600B490B4A0A60196819600A4BC32189001960094B00211960094B1C211960084B1A6087
:400B8000084A094B1A60704700010540080105401027000024010540380105402801054014010540881300000C01054008B500F02DF8044B01211A680A431A6000F02AF858
:400BC00008BDC0460000054010B5054C2378002B03D1FFF7BBFF01232370FFF7E7FF10BD18010020024B18680006C00F7047C04604000440000000000230800804D0C046B1
:400C00000138FDD1C046C046C0467047EFF3108072B6704780F310887047C046C046C046F0B50024CBB0069404900794FF2800D9A4E0A14200D1A1E008AD8022281C00F06E
:400C4000D9F9231C211C221C029498002858002802D01218014302930133202BF5D1002A05D1002900D08EE00191039102E0002001900390484F7F2328AE291C80222AA87D
:400C80002897464C736000F0B5F9454A454B266013602168090F0A2903D022680F23134000E000230693069F002F69D1FFF7AEFF3D4A3E4B116807971960069B0590002B56
:400CC00014D13B4A04982892289A01040A43289228AA22603249374A0A602268120F0A2A03D02E4B1A680F2313400693069F002F38D1019A002A35D0391C8022281C00F00F
:400D000082F90298039A08A983005A50224B2AA8289380227F23736000F06CF9214820492660086023681B0F0A2B03D01B4B1F680F231F400697069B002B13D11E4A049871
:400D40002892289A01040A43289215491B4A26600A602268120F0A2A03D0104B1A680F2313400693079B002B04D1104A0E481268026007930598FFF74DFF01E00423069343
:400D800006984BB0F0BD02998B00E85801210390EA5001916EE7C046B6D7000008000040040000400400008008010B401C010020B6D8000005000080B6D900000600008055
:400DC0001F2800D901BE034A80008318186819607047C0464000002038B5041C0D1E032D00D901BE1F2C00D901BEFFF70FFFA308084A9B009B18032214409440196806345C
:400E0000A2409143A5400C1C2C431C60FFF702FF38BDC04600E400E01F23184001238340181C014B1860704700E100E01F23184001238340181C014B1860704780E100E0EC
:400E400001BE7047034B04491A6892B20A431A607047C0460CED00E00400FA0510B5041C8022074B1202944205D91868FFF7C4FE044BE418F4E758686043FFF7BDFE10BD5B
:400E8000DC0000200080FFFF08B5034B1B7A5843FFF7B2FE08BDC046DC000020274B10B51B68002B00D09847254B1B685A071DD5244B1B681A0716D0234B244A1868116868
:400EC0004B1C40394C1EA14149420B40204909688B4203D11F4B20221A70E9E71E49C0B2C8541360E4E71D4B04221A601C4B1B689A0721D51B4B1A680F231340082B18D02B
:400F0000194B1A4A1968136899420DD011684B1C3F39481E814149420B401549C85C1549C0B208601360E5E7134B02211A688A431A60124B02221A6010BDC0461401002099
:400F4000CC0F06400803064040030640B001002028010020AD0100206C010020C00F06408C0F06400802064024010020200100202C01002040020640880F0640800F0640AE
:400F800002B4714649084900095C49008E4402BC7047C04603B47146490840004900095E49008E4403BC704770B50E4B0E4D0024ED1AAD101E1CAC4204D0A300F358984765
:400FC0000134F8E700F044F8084B094D0024ED1AAD101E1CAC4204D0A300F35898470134F8E770BD5C1000005C1000005C1000006410000010B50023934203D0CC5CC4548E
:401000000133F9E710BD031C8218934202D019700133FAE770470000A8100000EE0000000000000001330F4003410F4004430F4002600F40E61062048E04D84018808C40AD
:40104000C608E608020111019311C804111E0101F8B5C046F8BC08BC9E4670474D02000005040000F8B5C046F8BC08BC9E4670472502000088100000D0000020200000004B
:40108000C80000000000000000000000181000001C1000000000E02EC05D00001800000000366E01000000000000000000000000000000000000000000000000000000002C
:4010C00000000000000000000000000000000000000000000000000000000000000000000000000000000000000000000000000000000000000000000000000000000000F0
:4011000000100020111100002D1400002D14000080B500AF024B83F3088800F08BF9C0460010002080B500AF104B104A12688021C9020A431A60182000F056FA0B4B0B4A91
:4011400012680B490A401A600A4B0B4A1A600B4B10221A600A4B802212061A60094B0A4A1A600A4B00221A60BD4680BD00010B40FFFFFBFF04010B40060000800C02024071
:4011800008010B4000000240100000800C020B4080B582B000AF72B64B4B01221A70FB1D00221A7023E0FB1D1A78131C5B009B185B00464A9B183B603B681A785978090237
:4011C0000A43997809040A43DB781B061343191C3B681A795B791B0213439BB2081C191C00F0AEF9FB1D1A78FB1D01321A70FB1D1B78012BD7D9364A364B101C191C00F026
:40120000AFF9354B354A1A60354B364A1A60364B364A1A60364B00221A60364B00221A60354B992212041A60344B802212061A60334B992212041A60324B334A1A60334B25
:40124000992212041A60324B8C22D2041A60314B05221A60304B06221A60304A2F4B1B78DBB202210B43DBB213702D4A2C4B1B78DBB23C218B43DBB214210B43DBB2137080
:40128000264A264B1B78DBB216210B43DBB21370244BA0221A60244B244A1A60244B20221A60244B7F221A60234B244A1A60244B3C221A60234B244A1A60FFF733FF00F0D6
:4012C0008FF9BD4602B080BD1C700F402C21000038210000602100000000014000009930040001403333330308000140003333000C0001400803044000500F4008500F40F6
:4013000010500F4018500F4000001E1320500F4028500F402000004000800F4000700F4001700F4000000440080004400010C300180004400001044008010440B66D1B0053
:401340000002044008020440806D030010B5064C2378002B07D1054B002B02D0044800E000BF0123237010BDE8000020000000002821000008B5084B002B03D00748084979
:4013800000E000BF07480368002B00D108BD064B002BFBD09847F9E70000000028210000EC000020D00000200000000080B582B000AF00F0EDFA00F0D3FD002000F094FC7B
:4013C000194B1B6E181C00F03BFC62B600233B6026E000237B601DE0C04600F06DFB031EFBD0114B1B6E181C00F02AFC0E4AAE235B00D35879683A68081C111C1A1C00F0AC
:4014000051FC012000F008FB322000F089FA7B6801337B607B680B2BDEDD3B6801333B603B680B2BD5DDD1E70C24000080B500AFFEE7C04680B586B000AF224B7B61224B3C
:401440003B61204B7B6135E03B691B68FB603B695B68BB603B699B683B6000237B600CE0FB681A68BB681A60BB680433BB60FB680433FB607B6804337B607A683B689A4202
:40148000EED13B69DB683B6000237B6008E0BB6800221A60BB680433BB607B6804337B607A683B689A42F2D13B6910333B617B69013B7B617B69002BC6D100F007FEFFF7A8
:4014C00075FFFEE701000000F027000080B582B000AF00237B600FE07B68032B04D8134B7A689200D35800E0114B124A796889008B507B6801337B607B682F2BECD9FFF7C7
:4015000047FE0D4B00221A600C4B1B68002B02D10A4B00221A608023DB058022D205126801210A431A60BD4602B080BD001100002D14000000000020C8000020C00000201E
:4015400080B582B000AF786039607A683B68101C00211A1C00F0E0FDBD4602B080BDC04680B586B000AF7860396000233B6100237B612FE07B699B007A68D3181B68BB60D5
:401580000F23FB18BA681A70BB68FF229343BB6018E03B695B003A68D3181B781A1CBB68D318191C3B695B003A68D3185B780B703B6901333B610F23FB181A780F23FB180B
:4015C000013A1A700F23FB181B78002BE1D17B6901337B617B69092BCCD9BD4606B080BD80B500AFBD4680BD90B585B000AF78607B68022B00D8BBE07B68302B00D9B7E074
:401600005E4B1B78DBB21A1E7B689A420AD35C4A0F23FB1812781A705A4A0E23FB1812781A703FE0584B1B78DBB21A1E7B689A420AD3564A0F23FB1812781A70544A0E2394
:40164000FB1812781A702DE0524B1B78DBB21A1E7B689A420AD3504A0F23FB1812781A704E4A0E23FB1812781A701BE04C4B1B78DBB21A1E7B689A420AD34A4A0F23FB1863
:4016800012781A70484A0E23FB1812781A7009E0464A0F23FB1812781A70454A0E23FB1812781A707B68DA1E0C23FB1841498A5C1A700B23FC1800F0F1FC031C23700C235C
:4016C000FB181B782F2B0DD97B682A2B0AD93A4B19221A60052000F0D7FC0D23FB1819221A7007E0344B1B68DAB20D23FB183F210A401A700C23FA180D23FB1812781B7832
:401700009A4208D22C4B7A68033A2A498A5C1A60052000F0B9FC294B7A6825498C4662441278D2B21A60264B0F22BA1812781A60244B0E22BA1812781A60052000F014F9ED
:401740000C23FA180D23FB1812781B789A4208D9194B7A68033A17498A5C1A60052000F093FC0B23FB181B78181C00F09BFC02E0002000F0CBF8BD4605B090BDC0F1FF0F1C
:40178000C1F1FF0FC2F1FF0FC3F1FF0FC4F1FF0FC5F1FF0FC6F1FF0FC7F1FF0FC8F1FF0FC9F1FF0FCAF1FF0FCBF1FF0FCCF1FF0FCDF1FF0FDC2300002CFF0B4028FF0B4034
:4017C0001CFF0B4020FF0B4080B584B000AF021C3960FB1D1A7080239B05FB60FB1D1B781F2B02D9002000F091F8FB1D1B7810339B00FA68D3181B68BB60FB1D1B7810333F
:401800009B00FA68D3183A681A60BB68181CBD4604B080BD90B587B000AF021CFB1D1A70BB1D0A1C1A70BB1D1B78032B02D9002000F06CF8FB1D1B781F2B02D9002000F01E
:4018400065F8FB1D1B7803221340DB0006337B611323FC1800F022FC031C2370FB1D1B789B08DBB29B00144A944663441B68FB607B6903229A40131CDA43FB681340FB607B
:40188000BB1D1A787B699A40131CFA681343FB60FB1D1B789B08DBB29B00074A94466344FA681A601323FB181B78181C00F0FAFBBD4607B090BDC04600E400E080B582B06D
:4018C00000AF021CFB1D1A70054BFA1D12781F210A40012191400A1C1A60BD4602B080BD00E100E080B582B000AF021CFB1D1A70054BFA1D12781F210A40012191400A1C4E
:401900001A60BD4602B080BD80E100E080B582B000AF021CFB1D1A7001BEBD4602B080BD80B582B000AF786009E00C4B1B68181C00F0AAFB7B680A4A944663447B607A6884
:4019400080231B029A42F0D8064B1B687A685343181C00F099FBBD4602B080BDE00000200080FFFFD800002080B582B000AF021CBB1D1A80BB1D1B88044A12785343181CD4
:4019800000F082FBBD4602B080BDC046DC00002080B500AF174B03221A70174B1D221A70164B18221A70164B0E221A70154B01221A700023181C00F043F9124B00221A70CD
:4019C000002000F0D5F9002000F08EF90E4B1B78002B0AD10C4B01221A700C4B181C00F0F5F90B4B181C00F049FA0A4B01221A60BD4680BD91000F4041000F4021000F4044
:401A000031000F4072000F4004010020811B0000E11A00006C03002080B584B000AF78607B68002B05D01B4B00221A601A4B00221A70184B1A681949131C5B009B181B0194
:401A40005B58FB60164B1B681A1CFB68D3401A1C144B1B681340FB60134BFA68D2B21A70FB681B0AFB60104BFA68D2B21A70FB681B0AFB600C4BFA68D2B21A700B4B012263
:401A80001A600B4B19221A700A4B00221A60BD4604B080BD0C01002070000F4024010020680300206403002042000F400801002072000F406C03002080B500AF064B1B68A7
:401AC000002B04D0054B00221A70012300E00023181CBD4680BDC0466C03002072000F4080B500AF1E4B1B680B2B34D81D4B19681B4B1A68501C1A4B18601B480B1C5B00E9
:401B00005B189B009B189B001A58184B1A60174B1A68174B1B68DA40164B1B681A40134B1A60154A114B1B68DBB213700F4B1B681A0A0E4B1A60104A0C4B1B68DBB213709B
:401B40000A4B1B681A0A094B1A600B4A074B1B68DBB2137002E0094B11221A70BD4680BD080100200C0100202401002014010020680300206403002042000F4072000F40FA
:401B800080B500AF244B21221A70244B1B685A1C224B1A60214B1B680B2B38D8204A1F4B1B68DBB213701D4B1A681E49131C5B009B181B015A581C4B1A601B4B1A681B4B8F
:401BC0001B68DA401A4B1B681A40174B1A60194A154B1B68DBB21370134B1B681A0A124B1A60144A104B1B68DBB213700E4B1B681A0A0D4B1A600F4A0B4B1B68DBB2137098
:401C00000D4B01221A60044B09221A7002E00B4B01221A60BD4680BD72000F400C01002070000F402401002018010020680300206403002042000F40080100206C03002010
:401C400080B584B000AF78600023FB6021E00023BB6018E01249FA68131C5B009B189B00BA689B189B007A685A500D49FA68131C5B009B189B00BA689B189B007A685A50A2
:401C8000BB680133BB60BB680B2BE3D9FB680133FB60FB680B2BDAD9BD4604B080BDC0462401002080B584B000AFF860B9607A60FB68002B13DBBB68002B10DBFB680B2B6F
:401CC0000DDCBB680B2B0ADC0649BA68131C5B009B189B00FA689B189B007A685A50BD4604B080BD2401002080B582B000AF78607B68022B0FD002D8012B05D020E0032B18
:401D000010D0042B15D01BE0124B134A1A60134B01221A601BE00F4B114A1A600F4B02221A6014E00B4B0F4A1A600C4B03221A600DE0084B0C4A1A60084B04221A6006E067
:401D4000044B0A4A1A60054B00221A60C046BD4602B080BD640300207F7F7F00680300203F3F3F001F1F1F000F0F0F00FFFFFF0080B582B000AF78607B68002B0CD10E4B5D
:401D80000E4A1A600E4B05221A600E4B07221A600D4B20221A600CE0074B084A1A60084B05221A60074B07221A60074B20221A60C046BD4602B080BD78030020EC250000A2
:401DC000700300207C0300207403002080B582B000AF786000F048F87B68181C00F008F8032000F011F800F035F8BD4602B080BD80B582B000AF7860024B7A681A64BD462C
:401E000002B080BD0000002090B585B000AF021CFB1D1A700623FB600B23FC1800F03EF9031C23700A4B0A4A1268C0218A43111CFA1D1078FA689040021C0A431A600B2329
:401E4000FB181B78181C00F02DF9BD4605B090BD00E400E080B500AF024B01221A60BD4680BDC04600E100E080B500AF024B01221A60BD4680BDC04680E100E080B582B018
:401E800000AF786000F04AF87B68181C00F008F8032000F011F800F037F8BD4602B080BD80B582B000AF7860024B7A689A64BD4602B080BD0000002090B585B000AF021CC1
:401EC000FB1D1A701623FB600B23FC1800F0E6F8031C23700A4B0A4A12680A491140FA1D1078FA689040021C0A431A600B23FB181B78181C00F0D6F8BD4605B090BDC0469C
:401F000000E400E0FFFF3FFF80B500AF024B04221A60BD4680BDC04600E100E080B500AF024B04221A60BD4680BDC04680E100E080B500AF00F034F8BD4680BD80B500AF4D
:401F4000064B064A1268802109060A431A6000F019F800F01FF8BD4680BDC0460000074080B500AF064B1B78002B04D1FFF7E0FF034B01221A70FFF7E1FFBD4680BDC04686
:401F80001C01002080B500AF0B20FFF797FCBD4680BDC04680B500AF00F064F8BD4680BD80B500AF1D4B1E4A1A601E4B00221A601D4B01221A601D4B1D4A1A601D4B072284
:401FC0001A601D4B00221A601C4B01221A601C4B174A1A601B4B00221A600B20FFF782FC0B200321FFF716FC174B0B20191CFFF7EBFB164B00221A60154B00221A60154B2E
:4020000000221A60144B00221A60144B00221A60134B00221A60BD4680BDC046000007400B0000024000074048000740000307400700008004030740100307404400074060
:402040000002074004020740B1200000880E0740C80E0740480F0740080F0740C80F0740880F074080B500AF054B054A126805490A40902109040A431A60BD4680BDC046A7
:4020800000000140FFFF0FFF0230800804D0C0460138FDD1C046C046C0467047EFF3108072B6704780F310887047C046C046C04680B500AF044B1B68002B02D0024B1B68C7
:4020C0009847BD4680BDC046200100200E4B70B500251E1C0D4CE41AA410A54204D0AB00F35898470135F8E700F070FB084B00251E1C084CE41AA410A54204D0AB00F35829
:4021000098470135F8E770BDD8270000D8270000D8270000E0270000031C8218934202D019700133FAE770470000000000300F40000400400F40000404000F4051300F408C
:402140002C310F4046320F404A330F4009400F4017410F4007420F4004430F4002600F40011811182114310C0108020F03070507070809090B060C040D020E0B0F0D1F0F6A
:40218000200B22042407260828062A09300831013201330234023508360437043E553F55580459045B045F01800183018404850289048A109240930194039508963897067B
:4021C000980899069A269B089F01A241A902AB04AE40B020B207B301B418B640B70EB808BE40BF04C035C501C652C80DC9FFCAFFCBFFCDA0D804D904DA04DC99DD09DF01EB
:40220000E040E140E2C0E4C0E6C0014002800514068007400D020E2810A816021701186019A01D3E1E0120022202232426882F0832803614374139553C203D023F0845084D
:402240004F8854105640574068A8695587048DA0C079C270C49ECA20CCF8CEEFD040D210E21000210102032009040A490B900E210F571289146D1612170818A419571A5A7A
:402280001B081E49224925A0275F28102A022D0130C0323833C03407350F373038203A023B884032460C47EB483449FF4AFF4BFF580459045A045B045C995D095F0162C022
:4022C000644065018101820785018B018C078D019F01A007A402A605A806AA01B101B201B402B604BE54BF01D804D904DF01014002800410068107010D800E6810A81648E6
:4023000019841A041E681F1023402411258027082E402F1032803610370839553C113F8044804520468047085680570A5C805F1066056D026F01760A810282048580860421
:402340008B528D0491559A409E829F01A0A8A122A280A340A501A614A708A810AB20AC01AE01B20AB440C0D9C2F0C45ECA50CC68CEBFD060D630D8C0E230E801EA40EC0892
:40238000EE8063086F02730887208C02D840DA80DC20E2405080564058025A805F2064016608840186408A088E4098029B20A080A880AF02B308B704D4E0D6E0D880E25044
:4023C000EA3054405B145C088F10D403D603E402AB04AC08B040EC0402011101030405060708090A0B0C0E0F101112131415161718191B1C1D1E1F202122232526272829C0
:402400002A2B2E2F3031323334350000FFFF0000FFCC0000FF990000FF330000FF000000B3006600990099006600B3003300CC001919B3000033990000409900006699003D
:402440000099990000CC990000E6660000FF000033FF000066FF000080FF000099FF0000B2FF0000CCFF0000E5FF000000000000000055000000AA000000FF005500000019
:40248000550055005500AA005500FF00AA000000AA005500AA00AA00AA00FF00FF000000FF005500FF00AA00FF00FF0000550000005555000055AA000055FF005555000083
:4024C000555555005555AA005555FF00AA550000AA555500AA55AA00AA55FF00FF550000FF555500FF55AA00FF55FF0000AA000000AA550000AAAA0000AAFF0055AA0000F3
:4025000055AA550055AAAA0055AAFF00AAAA0000AAAA5500AAAAAA00AAAAFF00FFAA0000FFAA5500FFAAAA00FFAAFF0000FF000000FF550000FFAA0000FFFF0055FF000062
:4025400055FF550055FFAA0055FFFF00AAFF0000AAFF5500AAFFAA00AAFFFF00FFFF0000FFFF5500FFFFAA00FFFFFF00FF800000FF008000FF00FF008000FF000080FF00CF
:4025800000FF8000FF0000002020200000002000000000100000000000000000000000000000000000000000000000000000FF000010F0000020E0000030D0000040C0000E
:4025C0000050B0000060A00000709000008080000090700000A0600000B0500000C0400000D0300000E0200000FF0000000000000000005F00000007000700147F147F1435
:40260000242A7F2A12231308646236495522500005030000001C2241000041221C00082A1C2A0808083E080800503000000808080808006060000020100804023E514945A0
:402640003E00427F400042615149462141454B311814127F1027454545393C4A49493001710905033649494936064949291E003636000000563600000008142241141414D5
:40268000141441221408000201510906324979413E7E1111117E7F494949363E414141227F4141221C7F494949417F090901013E414151327F0808087F00417F4100204094
:4026C000413F017F081422417F404040407F0204027F7F0408107F3E4141413E7F090909063E4151215E7F09192946464949493101017F01013F4040403F1F2040201F7F2E
:402700002018207F63140814630304780403615149454300007F4141020408102041417F000004020102044040404040000102040020545454787F484444383844444420F0
:40274000384444487F3854545418087E090102081454543C7F0804047800447D40002040443D00007F10284400417F40007C041804787C0804047838444444387C14141404
:4027800008081414187C7C080404084854545420043F4440203C4040207C1C2040201C3C4030403C44281028440C5050503C4464544C44000836410000007F000000413615
:4027C000080008082A1C08081C2A0808F8B5C046F8BC08BC9E46704775130000CD140000F8B5C046F8BC08BC9E4670474D13000000280000D00000201800000098020000F6
:402800000000000000366E01C05D0000180000000000E02E0000000000000000000000000000000000000000000000000000000000000000000000000000000000000000B0
:402840000000000000000000000000000000000000000000000000000000000000000000000000000000000000000000000000000000000000000000000000000000000058
:402880000000000000000000000000000000000000000000000000000000000000000000000000000000000000000000000000000000000000000000000000000000000018
:4028C00000000000000000000000000000000000000000000000000000000000000000000000000000000000000000000000000000000000000000000000000000000000D8
:402900000000000000000000000000000000000000000000000000000000000000000000000000000000000000000000000000000000000000000000000000000000000097
:407FC000C8111100002100000080170000000000000001000000000000000000000000000000000000000000000000000000000000000000000000000000000000000000DE
:0200000490303A
:02000000686B2B
:0200000490402A
:20000000FFFFFFFF00000000000000000000000000000000000000000000000000000000E4
:0200000490501A
:0C000000000204C81193110004D479FE22
:0200000490600A
:0100000001FE
:00000001FF